{
  "contractName": "ChainList",
  "abi": [
    {
      "constant": false,
      "inputs": [
        {
          "name": "_id",
          "type": "uint256"
        }
      ],
      "name": "buyArticle",
      "outputs": [],
      "payable": true,
      "stateMutability": "payable",
      "type": "function"
    },
    {
      "constant": false,
      "inputs": [],
      "name": "kill",
      "outputs": [],
      "payable": false,
      "stateMutability": "nonpayable",
      "type": "function"
    },
    {
      "constant": true,
      "inputs": [],
      "name": "getArticlesForSale",
      "outputs": [
        {
          "name": "",
          "type": "uint256[]"
        }
      ],
      "payable": false,
      "stateMutability": "view",
      "type": "function"
    },
    {
      "constant": true,
      "inputs": [],
      "name": "getNumberOfArticles",
      "outputs": [
        {
          "name": "",
          "type": "uint256"
        }
      ],
      "payable": false,
      "stateMutability": "view",
      "type": "function"
    },
    {
      "constant": false,
      "inputs": [
        {
          "name": "_name",
          "type": "string"
        },
        {
          "name": "_description",
          "type": "string"
        },
        {
          "name": "_price",
          "type": "uint256"
        }
      ],
      "name": "sellArticle",
      "outputs": [],
      "payable": false,
      "stateMutability": "nonpayable",
      "type": "function"
    },
    {
      "constant": true,
      "inputs": [
        {
          "name": "",
          "type": "uint256"
        }
      ],
      "name": "articles",
      "outputs": [
        {
          "name": "id",
          "type": "uint256"
        },
        {
          "name": "seller",
          "type": "address"
        },
        {
          "name": "buyer",
          "type": "address"
        },
        {
          "name": "name",
          "type": "string"
        },
        {
          "name": "description",
          "type": "string"
        },
        {
          "name": "price",
          "type": "uint256"
        }
      ],
      "payable": false,
      "stateMutability": "view",
      "type": "function"
    },
    {
      "anonymous": false,
      "inputs": [
        {
          "indexed": true,
          "name": "_id",
          "type": "uint256"
        },
        {
          "indexed": true,
          "name": "_seller",
          "type": "address"
        },
        {
          "indexed": false,
          "name": "_name",
          "type": "string"
        },
        {
          "indexed": false,
          "name": "_price",
          "type": "uint256"
        }
      ],
      "name": "LogSellArticle",
      "type": "event"
    },
    {
      "anonymous": false,
      "inputs": [
        {
          "indexed": true,
          "name": "_id",
          "type": "uint256"
        },
        {
          "indexed": true,
          "name": "_seller",
          "type": "address"
        },
        {
          "indexed": true,
          "name": "_buyer",
          "type": "address"
        },
        {
          "indexed": false,
          "name": "_name",
          "type": "string"
        },
        {
          "indexed": false,
          "name": "_price",
          "type": "uint256"
        }
      ],
      "name": "LogBuyArticle",
      "type": "event"
    }
  ],
  "bytecode": "0x6060604052336000806101000a81548173ffffffffffffffffffffffffffffffffffffffff021916908373ffffffffffffffffffffffffffffffffffffffff160217905550610c14806100536000396000f300606060405260043610610078576000357c0100000000000000000000000000000000000000000000000000000000900463ffffffff1680631cc4baa81461007d57806341c0e1b5146100955780637f6be3da146100aa57806389da85d314610114578063d26095151461013d578063edcfafe6146101e6575b600080fd5b610093600480803590602001909190505061039c565b005b34156100a057600080fd5b6100a8610684565b005b34156100b557600080fd5b6100bd610719565b6040518080602001828103825283818151815260200191508051906020019060200280838360005b838110156101005780820151818401526020810190506100e5565b505050509050019250505060405180910390f35b341561011f57600080fd5b610127610885565b6040518082815260200191505060405180910390f35b341561014857600080fd5b6101e4600480803590602001908201803590602001908080601f0160208091040260200160405190810160405280939291908181526020018383808284378201915050505050509190803590602001908201803590602001908080601f0160208091040260200160405190810160405280939291908181526020018383808284378201915050505050509190803590602001909190505061088f565b005b34156101f157600080fd5b6102076004808035906020019091905050610ab5565b604051808781526020018673ffffffffffffffffffffffffffffffffffffffff1673ffffffffffffffffffffffffffffffffffffffff1681526020018573ffffffffffffffffffffffffffffffffffffffff1673ffffffffffffffffffffffffffffffffffffffff16815260200180602001806020018481526020018381038352868181546001816001161561010002031660029004815260200191508054600181600116156101000203166002900480156103045780601f106102d957610100808354040283529160200191610304565b820191906000526020600020905b8154815290600101906020018083116102e757829003601f168201915b50508381038252858181546001816001161561010002031660029004815260200191508054600181600116156101000203166002900480156103875780601f1061035c57610100808354040283529160200191610387565b820191906000526020600020905b81548152906001019060200180831161036a57829003601f168201915b50509850505050505050505060405180910390f35b6000806007541115156103ae57600080fd5b6000821180156103c057506007548211155b15156103cb57600080fd5b60066000838152602001908152602001600020905060008160020160009054906101000a900473ffffffffffffffffffffffffffffffffffffffff1673ffffffffffffffffffffffffffffffffffffffff1614151561042957600080fd5b8060010160009054906101000a900473ffffffffffffffffffffffffffffffffffffffff1673ffffffffffffffffffffffffffffffffffffffff163373ffffffffffffffffffffffffffffffffffffffff161415151561048857600080fd5b80600501543414151561049a57600080fd5b338160020160006101000a81548173ffffffffffffffffffffffffffffffffffffffff021916908373ffffffffffffffffffffffffffffffffffffffff1602179055508060010160009054906101000a900473ffffffffffffffffffffffffffffffffffffffff1673ffffffffffffffffffffffffffffffffffffffff166108fc349081150290604051600060405180830381858888f19350505050151561054157600080fd5b8060020160009054906101000a900473ffffffffffffffffffffffffffffffffffffffff1673ffffffffffffffffffffffffffffffffffffffff168160010160009054906101000a900473ffffffffffffffffffffffffffffffffffffffff1673ffffffffffffffffffffffffffffffffffffffff16837f5d28bc06e6f0c45405abfe77bd77236c767f9bd9d044ae2d954a415a2b4823e084600301856005015460405180806020018381526020018281038252848181546001816001161561010002031660029004815260200191508054600181600116156101000203166002900480156106715780601f1061064657610100808354040283529160200191610671565b820191906000526020600020905b81548152906001019060200180831161065457829003601f168201915b5050935050505060405180910390a45050565b6000809054906101000a900473ffffffffffffffffffffffffffffffffffffffff1673ffffffffffffffffffffffffffffffffffffffff163373ffffffffffffffffffffffffffffffffffffffff161415156106df57600080fd5b6000809054906101000a900473ffffffffffffffffffffffffffffffffffffffff1673ffffffffffffffffffffffffffffffffffffffff16ff5b610721610b2f565b610729610b2f565b600080610734610b2f565b60006007546040518059106107465750595b9080825280602002602001820160405250945060009350600192505b6007548311151561080b5760006006600085815260200190815260200160002060020160009054906101000a900473ffffffffffffffffffffffffffffffffffffffff1673ffffffffffffffffffffffffffffffffffffffff1614156107fe57600660008481526020019081526020016000206000015485858151811015156107e757fe5b906020019060200201818152505083806001019450505b8280600101935050610762565b836040518059106108195750595b90808252806020026020018201604052509150600090505b8381101561087a57848181518110151561084757fe5b90602001906020020151828281518110151561085f57fe5b90602001906020020181815250508080600101915050610831565b819550505050505090565b6000600754905090565b60076000815480929190600101919050555060c06040519081016040528060075481526020013373ffffffffffffffffffffffffffffffffffffffff168152602001600073ffffffffffffffffffffffffffffffffffffffff168152602001848152602001838152602001828152506006600060075481526020019081526020016000206000820151816000015560208201518160010160006101000a81548173ffffffffffffffffffffffffffffffffffffffff021916908373ffffffffffffffffffffffffffffffffffffffff16021790555060408201518160020160006101000a81548173ffffffffffffffffffffffffffffffffffffffff021916908373ffffffffffffffffffffffffffffffffffffffff16021790555060608201518160030190805190602001906109c7929190610b43565b5060808201518160040190805190602001906109e4929190610b43565b5060a082015181600501559050503373ffffffffffffffffffffffffffffffffffffffff166007547fe2ebb0c522a8b90a93f45a5dfd3c0e0516b81519fdf199efe51c474642fe8cec85846040518080602001838152602001828103825284818151815260200191508051906020019080838360005b83811015610a75578082015181840152602081019050610a5a565b50505050905090810190601f168015610aa25780820380516001836020036101000a031916815260200191505b50935050505060405180910390a3505050565b60066020528060005260406000206000915090508060000154908060010160009054906101000a900473ffffffffffffffffffffffffffffffffffffffff16908060020160009054906101000a900473ffffffffffffffffffffffffffffffffffffffff1690806003019080600401908060050154905086565b602060405190810160405280600081525090565b828054600181600116156101000203166002900490600052602060002090601f016020900481019282601f10610b8457805160ff1916838001178555610bb2565b82800160010185558215610bb2579182015b82811115610bb1578251825591602001919060010190610b96565b5b509050610bbf9190610bc3565b5090565b610be591905b80821115610be1576000816000905550600101610bc9565b5090565b905600a165627a7a723058208dbc0e0860a4ba594fc52665d8a39d02be44d701e737e058519dafcebb068bee0029",
  "source": "pragma solidity ^0.4.18;\r\n\r\nimport \"./Ownable.sol\";\r\n\r\ncontract ChainList is Ownable{\r\n  // custom types\r\n  struct Article {\r\n\r\n    uint id;\r\n    address seller;\r\n    address buyer;\r\n    string name;\r\n    string description;\r\n    uint256 price;\r\n  }\r\n\r\n\r\n  //state variables\r\n  address seller;\r\n  address buyer;\r\n  string name;\r\n  string description;\r\n  uint256 price; //unsigned integer\r\n\r\n  mapping (uint => Article) public articles;\r\n  uint articleCounter;\r\n\r\n  //events\r\n  event LogSellArticle(\r\n    uint indexed _id,\r\n    address indexed _seller,\r\n    string _name,\r\n    uint _price\r\n    );\r\n//constructor\r\n  event LogBuyArticle(\r\n    uint indexed _id,\r\n    address indexed _seller,\r\n    address indexed _buyer,\r\n    string _name,\r\n    uint _price\r\n    );\r\n\r\n//deactivate the contracts\r\n    function kill() public onlyOwner {\r\n      selfdestruct(owner);\r\n    }\r\n\r\n  //sell an article\r\n  function sellArticle(string _name, string _description, uint256 _price) public{\r\n    // a new article\r\n    articleCounter++;\r\n    //storing article\r\n    articles[articleCounter] = Article(\r\n      articleCounter,\r\n      msg.sender,\r\n      0x0,\r\n      _name,\r\n      _description,\r\n      _price\r\n      );\r\n\r\n    LogSellArticle(articleCounter, msg.sender, _name, _price);\r\n  }\r\n\r\n  // dont need below as we are getting ID through counter and calling with getNumberOfArticles\r\n  //function getArticle() public view returns(\r\n    //address _seller,\r\n    //address _buyer,\r\n    //string _name,\r\n    //string _description,\r\n    //uint256 _price){\r\n    //return (seller, buyer, name, description, price);\r\n  //}\r\n\r\n  //fetch number of artilces in the countract\r\n\r\n  function getNumberOfArticles() public view returns(uint){\r\n    return articleCounter;\r\n  }\r\n\r\n  //fetch and return all article ids for articles still for sale\r\n  function getArticlesForSale() public view returns (uint[]){\r\n    //prepare output array\r\n    uint[] memory articleIds = new uint[](articleCounter);\r\n\r\n    uint numberOfArticlesForSale = 0;\r\n    //\r\n    for(uint i = 1; i <= articleCounter; i++){\r\n      //keep id if article is still for sellArticle\r\n      if(articles[i].buyer == 0x0){\r\n        articleIds[numberOfArticlesForSale] = articles[i].id;\r\n        numberOfArticlesForSale++;\r\n\r\n      }\r\n    }\r\n\r\n    // copy the articleIds array into a smaller forSale array\r\n    uint[] memory forSale = new uint[](numberOfArticlesForSale);\r\n    for(uint j = 0; j < numberOfArticlesForSale; j++){\r\n      forSale[j] = articleIds[j];\r\n\r\n    }\r\n    return forSale;\r\n  }\r\n\r\n  //buy\r\n  function buyArticle(uint _id) payable public{ //payble so you can send value to it\r\n    //check items for sell\r\n    require(articleCounter > 0);\r\n\r\n    //check the article exists\r\n    require(_id>0 && _id<=articleCounter);\r\n\r\n    //retrive article from mapping\r\n    Article storage article = articles[_id];\r\n\r\n    //check item hasnt be solid\r\n    require(article.buyer == 0x0);\r\n    //dont allow seller to buy own items\r\n    require(msg.sender != article.seller);\r\n    //value sent corresponds to price of items\r\n    require(msg.value == article.price);\r\n    //keep track of buyer info\r\n    article.buyer = msg.sender;\r\n    //buyer can pay seller\r\n    article.seller.transfer(msg.value);\r\n    //trigger events\r\n    LogBuyArticle(_id, article.seller, article.buyer, article.name, article.price);\r\n  }\r\n}\r\n",
  "sourcePath": "C:\\Users\\eddg2\\ChainSkills\\Training\\chainlist\\contracts\\ChainList.sol",
  "compiler": {
    "name": "solc",
    "version": "0.4.18+commit.9cf6e910.Emscripten.clang"
  },
  "schemaVersion": "1.0.1",
  "updatedAt": "2020-12-26T20:01:30.713Z"
}